{
  "_format": "hh-sol-artifact-1",
  "contractName": "ProductRegistry",
  "sourceName": "contracts/ProductRegistry.sol",
  "abi": [
    {
      "inputs": [],
      "stateMutability": "nonpayable",
      "type": "constructor"
    },
    {
      "anonymous": false,
      "inputs": [
        {
          "indexed": false,
          "internalType": "address",
          "name": "farmerAddress",
          "type": "address"
        },
        {
          "indexed": false,
          "internalType": "string",
          "name": "name",
          "type": "string"
        },
        {
          "indexed": false,
          "internalType": "string",
          "name": "contactInfo",
          "type": "string"
        }
      ],
      "name": "FarmerRegistered",
      "type": "event"
    },
    {
      "anonymous": false,
      "inputs": [
        {
          "indexed": false,
          "internalType": "uint256",
          "name": "id",
          "type": "uint256"
        },
        {
          "indexed": false,
          "internalType": "string",
          "name": "name",
          "type": "string"
        },
        {
          "indexed": false,
          "internalType": "string",
          "name": "category",
          "type": "string"
        },
        {
          "indexed": false,
          "internalType": "string",
          "name": "dateOfManufacture",
          "type": "string"
        },
        {
          "indexed": false,
          "internalType": "string",
          "name": "timeOfManufacture",
          "type": "string"
        },
        {
          "indexed": false,
          "internalType": "string",
          "name": "place",
          "type": "string"
        },
        {
          "indexed": false,
          "internalType": "string",
          "name": "qualityRating",
          "type": "string"
        },
        {
          "indexed": false,
          "internalType": "uint256",
          "name": "priceForFarmer",
          "type": "uint256"
        },
        {
          "indexed": false,
          "internalType": "string",
          "name": "description",
          "type": "string"
        },
        {
          "indexed": false,
          "internalType": "address",
          "name": "farmer",
          "type": "address"
        }
      ],
      "name": "ProductRegistered",
      "type": "event"
    },
    {
      "anonymous": false,
      "inputs": [
        {
          "indexed": false,
          "internalType": "uint256",
          "name": "id",
          "type": "uint256"
        },
        {
          "indexed": false,
          "internalType": "uint256",
          "name": "priceForFarmer",
          "type": "uint256"
        },
        {
          "indexed": false,
          "internalType": "string",
          "name": "qualityRating",
          "type": "string"
        },
        {
          "indexed": false,
          "internalType": "bool",
          "name": "isAvailable",
          "type": "bool"
        },
        {
          "indexed": false,
          "internalType": "uint256",
          "name": "updatedAt",
          "type": "uint256"
        }
      ],
      "name": "ProductUpdated",
      "type": "event"
    },
    {
      "inputs": [
        {
          "internalType": "string",
          "name": "",
          "type": "string"
        },
        {
          "internalType": "uint256",
          "name": "",
          "type": "uint256"
        }
      ],
      "name": "categoryProducts",
      "outputs": [
        {
          "internalType": "uint256",
          "name": "",
          "type": "uint256"
        }
      ],
      "stateMutability": "view",
      "type": "function"
    },
    {
      "inputs": [
        {
          "internalType": "address",
          "name": "",
          "type": "address"
        },
        {
          "internalType": "uint256",
          "name": "",
          "type": "uint256"
        }
      ],
      "name": "farmerProducts",
      "outputs": [
        {
          "internalType": "uint256",
          "name": "",
          "type": "uint256"
        }
      ],
      "stateMutability": "view",
      "type": "function"
    },
    {
      "inputs": [
        {
          "internalType": "address",
          "name": "",
          "type": "address"
        }
      ],
      "name": "farmers",
      "outputs": [
        {
          "internalType": "address",
          "name": "farmerAddress",
          "type": "address"
        },
        {
          "internalType": "string",
          "name": "name",
          "type": "string"
        },
        {
          "internalType": "string",
          "name": "contactInfo",
          "type": "string"
        },
        {
          "internalType": "uint256",
          "name": "totalProducts",
          "type": "uint256"
        },
        {
          "internalType": "bool",
          "name": "isRegistered",
          "type": "bool"
        }
      ],
      "stateMutability": "view",
      "type": "function"
    },
    {
      "inputs": [],
      "name": "getAllProducts",
      "outputs": [
        {
          "components": [
            {
              "internalType": "uint256",
              "name": "id",
              "type": "uint256"
            },
            {
              "internalType": "string",
              "name": "name",
              "type": "string"
            },
            {
              "internalType": "string",
              "name": "category",
              "type": "string"
            },
            {
              "internalType": "string",
              "name": "dateOfManufacture",
              "type": "string"
            },
            {
              "internalType": "string",
              "name": "timeOfManufacture",
              "type": "string"
            },
            {
              "internalType": "string",
              "name": "place",
              "type": "string"
            },
            {
              "internalType": "string",
              "name": "qualityRating",
              "type": "string"
            },
            {
              "internalType": "uint256",
              "name": "priceForFarmer",
              "type": "uint256"
            },
            {
              "internalType": "string",
              "name": "description",
              "type": "string"
            },
            {
              "internalType": "address",
              "name": "farmer",
              "type": "address"
            },
            {
              "internalType": "bool",
              "name": "isAvailable",
              "type": "bool"
            },
            {
              "internalType": "uint256",
              "name": "createdAt",
              "type": "uint256"
            },
            {
              "internalType": "uint256",
              "name": "updatedAt",
              "type": "uint256"
            }
          ],
          "internalType": "struct ProductRegistry.Product[]",
          "name": "",
          "type": "tuple[]"
        }
      ],
      "stateMutability": "view",
      "type": "function"
    },
    {
      "inputs": [],
      "name": "getAvailableProducts",
      "outputs": [
        {
          "components": [
            {
              "internalType": "uint256",
              "name": "id",
              "type": "uint256"
            },
            {
              "internalType": "string",
              "name": "name",
              "type": "string"
            },
            {
              "internalType": "string",
              "name": "category",
              "type": "string"
            },
            {
              "internalType": "string",
              "name": "dateOfManufacture",
              "type": "string"
            },
            {
              "internalType": "string",
              "name": "timeOfManufacture",
              "type": "string"
            },
            {
              "internalType": "string",
              "name": "place",
              "type": "string"
            },
            {
              "internalType": "string",
              "name": "qualityRating",
              "type": "string"
            },
            {
              "internalType": "uint256",
              "name": "priceForFarmer",
              "type": "uint256"
            },
            {
              "internalType": "string",
              "name": "description",
              "type": "string"
            },
            {
              "internalType": "address",
              "name": "farmer",
              "type": "address"
            },
            {
              "internalType": "bool",
              "name": "isAvailable",
              "type": "bool"
            },
            {
              "internalType": "uint256",
              "name": "createdAt",
              "type": "uint256"
            },
            {
              "internalType": "uint256",
              "name": "updatedAt",
              "type": "uint256"
            }
          ],
          "internalType": "struct ProductRegistry.Product[]",
          "name": "",
          "type": "tuple[]"
        }
      ],
      "stateMutability": "view",
      "type": "function"
    },
    {
      "inputs": [],
      "name": "getContractStats",
      "outputs": [
        {
          "internalType": "uint256",
          "name": "totalProducts",
          "type": "uint256"
        },
        {
          "internalType": "uint256",
          "name": "totalFarmers",
          "type": "uint256"
        },
        {
          "internalType": "uint256",
          "name": "availableProducts",
          "type": "uint256"
        }
      ],
      "stateMutability": "view",
      "type": "function"
    },
    {
      "inputs": [
        {
          "internalType": "address",
          "name": "_farmer",
          "type": "address"
        }
      ],
      "name": "getFarmerInfo",
      "outputs": [
        {
          "components": [
            {
              "internalType": "address",
              "name": "farmerAddress",
              "type": "address"
            },
            {
              "internalType": "string",
              "name": "name",
              "type": "string"
            },
            {
              "internalType": "string",
              "name": "contactInfo",
              "type": "string"
            },
            {
              "internalType": "uint256",
              "name": "totalProducts",
              "type": "uint256"
            },
            {
              "internalType": "bool",
              "name": "isRegistered",
              "type": "bool"
            }
          ],
          "internalType": "struct ProductRegistry.Farmer",
          "name": "",
          "type": "tuple"
        }
      ],
      "stateMutability": "view",
      "type": "function"
    },
    {
      "inputs": [
        {
          "internalType": "uint256",
          "name": "_id",
          "type": "uint256"
        }
      ],
      "name": "getProduct",
      "outputs": [
        {
          "components": [
            {
              "internalType": "uint256",
              "name": "id",
              "type": "uint256"
            },
            {
              "internalType": "string",
              "name": "name",
              "type": "string"
            },
            {
              "internalType": "string",
              "name": "category",
              "type": "string"
            },
            {
              "internalType": "string",
              "name": "dateOfManufacture",
              "type": "string"
            },
            {
              "internalType": "string",
              "name": "timeOfManufacture",
              "type": "string"
            },
            {
              "internalType": "string",
              "name": "place",
              "type": "string"
            },
            {
              "internalType": "string",
              "name": "qualityRating",
              "type": "string"
            },
            {
              "internalType": "uint256",
              "name": "priceForFarmer",
              "type": "uint256"
            },
            {
              "internalType": "string",
              "name": "description",
              "type": "string"
            },
            {
              "internalType": "address",
              "name": "farmer",
              "type": "address"
            },
            {
              "internalType": "bool",
              "name": "isAvailable",
              "type": "bool"
            },
            {
              "internalType": "uint256",
              "name": "createdAt",
              "type": "uint256"
            },
            {
              "internalType": "uint256",
              "name": "updatedAt",
              "type": "uint256"
            }
          ],
          "internalType": "struct ProductRegistry.Product",
          "name": "",
          "type": "tuple"
        }
      ],
      "stateMutability": "view",
      "type": "function"
    },
    {
      "inputs": [
        {
          "internalType": "string",
          "name": "_category",
          "type": "string"
        }
      ],
      "name": "getProductsByCategory",
      "outputs": [
        {
          "components": [
            {
              "internalType": "uint256",
              "name": "id",
              "type": "uint256"
            },
            {
              "internalType": "string",
              "name": "name",
              "type": "string"
            },
            {
              "internalType": "string",
              "name": "category",
              "type": "string"
            },
            {
              "internalType": "string",
              "name": "dateOfManufacture",
              "type": "string"
            },
            {
              "internalType": "string",
              "name": "timeOfManufacture",
              "type": "string"
            },
            {
              "internalType": "string",
              "name": "place",
              "type": "string"
            },
            {
              "internalType": "string",
              "name": "qualityRating",
              "type": "string"
            },
            {
              "internalType": "uint256",
              "name": "priceForFarmer",
              "type": "uint256"
            },
            {
              "internalType": "string",
              "name": "description",
              "type": "string"
            },
            {
              "internalType": "address",
              "name": "farmer",
              "type": "address"
            },
            {
              "internalType": "bool",
              "name": "isAvailable",
              "type": "bool"
            },
            {
              "internalType": "uint256",
              "name": "createdAt",
              "type": "uint256"
            },
            {
              "internalType": "uint256",
              "name": "updatedAt",
              "type": "uint256"
            }
          ],
          "internalType": "struct ProductRegistry.Product[]",
          "name": "",
          "type": "tuple[]"
        }
      ],
      "stateMutability": "view",
      "type": "function"
    },
    {
      "inputs": [
        {
          "internalType": "address",
          "name": "_farmer",
          "type": "address"
        }
      ],
      "name": "getProductsByFarmer",
      "outputs": [
        {
          "components": [
            {
              "internalType": "uint256",
              "name": "id",
              "type": "uint256"
            },
            {
              "internalType": "string",
              "name": "name",
              "type": "string"
            },
            {
              "internalType": "string",
              "name": "category",
              "type": "string"
            },
            {
              "internalType": "string",
              "name": "dateOfManufacture",
              "type": "string"
            },
            {
              "internalType": "string",
              "name": "timeOfManufacture",
              "type": "string"
            },
            {
              "internalType": "string",
              "name": "place",
              "type": "string"
            },
            {
              "internalType": "string",
              "name": "qualityRating",
              "type": "string"
            },
            {
              "internalType": "uint256",
              "name": "priceForFarmer",
              "type": "uint256"
            },
            {
              "internalType": "string",
              "name": "description",
              "type": "string"
            },
            {
              "internalType": "address",
              "name": "farmer",
              "type": "address"
            },
            {
              "internalType": "bool",
              "name": "isAvailable",
              "type": "bool"
            },
            {
              "internalType": "uint256",
              "name": "createdAt",
              "type": "uint256"
            },
            {
              "internalType": "uint256",
              "name": "updatedAt",
              "type": "uint256"
            }
          ],
          "internalType": "struct ProductRegistry.Product[]",
          "name": "",
          "type": "tuple[]"
        }
      ],
      "stateMutability": "view",
      "type": "function"
    },
    {
      "inputs": [
        {
          "internalType": "string",
          "name": "_category",
          "type": "string"
        }
      ],
      "name": "getProductsCountByCategory",
      "outputs": [
        {
          "internalType": "uint256",
          "name": "",
          "type": "uint256"
        }
      ],
      "stateMutability": "view",
      "type": "function"
    },
    {
      "inputs": [
        {
          "internalType": "address",
          "name": "_farmer",
          "type": "address"
        }
      ],
      "name": "getProductsCountByFarmer",
      "outputs": [
        {
          "internalType": "uint256",
          "name": "",
          "type": "uint256"
        }
      ],
      "stateMutability": "view",
      "type": "function"
    },
    {
      "inputs": [],
      "name": "getTotalProducts",
      "outputs": [
        {
          "internalType": "uint256",
          "name": "",
          "type": "uint256"
        }
      ],
      "stateMutability": "view",
      "type": "function"
    },
    {
      "inputs": [
        {
          "internalType": "uint256",
          "name": "_id",
          "type": "uint256"
        }
      ],
      "name": "isProductAvailable",
      "outputs": [
        {
          "internalType": "bool",
          "name": "",
          "type": "bool"
        }
      ],
      "stateMutability": "view",
      "type": "function"
    },
    {
      "inputs": [],
      "name": "nextProductId",
      "outputs": [
        {
          "internalType": "uint256",
          "name": "",
          "type": "uint256"
        }
      ],
      "stateMutability": "view",
      "type": "function"
    },
    {
      "inputs": [],
      "name": "owner",
      "outputs": [
        {
          "internalType": "address",
          "name": "",
          "type": "address"
        }
      ],
      "stateMutability": "view",
      "type": "function"
    },
    {
      "inputs": [
        {
          "internalType": "uint256",
          "name": "",
          "type": "uint256"
        }
      ],
      "name": "products",
      "outputs": [
        {
          "internalType": "uint256",
          "name": "id",
          "type": "uint256"
        },
        {
          "internalType": "string",
          "name": "name",
          "type": "string"
        },
        {
          "internalType": "string",
          "name": "category",
          "type": "string"
        },
        {
          "internalType": "string",
          "name": "dateOfManufacture",
          "type": "string"
        },
        {
          "internalType": "string",
          "name": "timeOfManufacture",
          "type": "string"
        },
        {
          "internalType": "string",
          "name": "place",
          "type": "string"
        },
        {
          "internalType": "string",
          "name": "qualityRating",
          "type": "string"
        },
        {
          "internalType": "uint256",
          "name": "priceForFarmer",
          "type": "uint256"
        },
        {
          "internalType": "string",
          "name": "description",
          "type": "string"
        },
        {
          "internalType": "address",
          "name": "farmer",
          "type": "address"
        },
        {
          "internalType": "bool",
          "name": "isAvailable",
          "type": "bool"
        },
        {
          "internalType": "uint256",
          "name": "createdAt",
          "type": "uint256"
        },
        {
          "internalType": "uint256",
          "name": "updatedAt",
          "type": "uint256"
        }
      ],
      "stateMutability": "view",
      "type": "function"
    },
    {
      "inputs": [
        {
          "internalType": "string",
          "name": "_name",
          "type": "string"
        },
        {
          "internalType": "string",
          "name": "_contactInfo",
          "type": "string"
        }
      ],
      "name": "registerFarmer",
      "outputs": [],
      "stateMutability": "nonpayable",
      "type": "function"
    },
    {
      "inputs": [
        {
          "internalType": "string",
          "name": "_name",
          "type": "string"
        },
        {
          "internalType": "string",
          "name": "_category",
          "type": "string"
        },
        {
          "internalType": "string",
          "name": "_dateOfManufacture",
          "type": "string"
        },
        {
          "internalType": "string",
          "name": "_timeOfManufacture",
          "type": "string"
        },
        {
          "internalType": "string",
          "name": "_place",
          "type": "string"
        },
        {
          "internalType": "string",
          "name": "_qualityRating",
          "type": "string"
        },
        {
          "internalType": "uint256",
          "name": "_priceForFarmer",
          "type": "uint256"
        },
        {
          "internalType": "string",
          "name": "_description",
          "type": "string"
        }
      ],
      "name": "registerProduct",
      "outputs": [],
      "stateMutability": "nonpayable",
      "type": "function"
    },
    {
      "inputs": [
        {
          "internalType": "uint256",
          "name": "_id",
          "type": "uint256"
        },
        {
          "internalType": "uint256",
          "name": "_priceForFarmer",
          "type": "uint256"
        },
        {
          "internalType": "string",
          "name": "_qualityRating",
          "type": "string"
        },
        {
          "internalType": "bool",
          "name": "_isAvailable",
          "type": "bool"
        }
      ],
      "name": "updateProduct",
      "outputs": [],
      "stateMutability": "nonpayable",
      "type": "function"
    },
    {
      "inputs": [
        {
          "internalType": "uint256",
          "name": "_id",
          "type": "uint256"
        },
        {
          "internalType": "bool",
          "name": "_isAvailable",
          "type": "bool"
        }
      ],
      "name": "updateProductAvailability",
      "outputs": [],
      "stateMutability": "nonpayable",
      "type": "function"
    }
  ],
  "bytecode": "0x608060405234801561001057600080fd5b50600580546001600160a01b03191633179055613831806100326000396000f3fe608060405234801561001057600080fd5b50600436106101375760003560e01c80637acc0b20116100b8578063a8b27ef91161007c578063a8b27ef9146102c9578063b14a750d146102dc578063b9db15b4146102ef578063dfe6b5d61461030f578063ec90a7b014610332578063fece87721461034557600080fd5b80637acc0b20146102235780638a4273301461024f5780638da5cb5b146102785780638f38cc7b146102a357806391948a3e146102b657600080fd5b80634f9f708b116100ff5780634f9f708b146101b25780634fadbced146101c5578063570aea8a146101e857806373bf8ac2146101f0578063787a3f921461021057600080fd5b806302ee3a521461013c5780630ff4e2b41461015a578063314596b214610162578063401b2168146101775780634de91a631461019b575b600080fd5b610144610358565b6040516101519190612f69565b60405180910390f35b61014461085c565b61017561017036600461306e565b610de1565b005b61018a6101853660046130ee565b610f36565b604051610151959493929190613110565b6101a460045481565b604051908152602001610151565b6101a46101c0366004613160565b611084565b6101d86101d336600461319d565b6110ac565b6040519015158152602001610151565b6004546101a4565b6102036101fe3660046130ee565b6110f1565b60405161015191906131b6565b61017561021e366004613234565b6112a4565b61023661023136600461319d565b6113a6565b6040516101519d9c9b9a99989796959493929190613260565b6101a461025d3660046130ee565b6001600160a01b031660009081526002602052604090205490565b60055461028b906001600160a01b031681565b6040516001600160a01b039091168152602001610151565b6101446102b1366004613160565b6117cd565b6101756102c4366004613337565b611d18565b6101a46102d736600461345c565b61210a565b6101756102ea3660046134a1565b61214a565b6103026102fd36600461319d565b6122aa565b6040516101519190613502565b61031761273f565b60408051938452602084019290925290820152606001610151565b6101446103403660046130ee565b61279c565b6101a4610353366004613515565b612cd2565b6060600060045467ffffffffffffffff81111561037757610377612fcb565b6040519080825280602002602001820160405280156103b057816020015b61039d612cee565b8152602001906001900390816103955790505b50905060005b600454811015610856576000818152602081815260409182902082516101a081019093528054835260018101805491928401916103f29061353f565b80601f016020809104026020016040519081016040528092919081815260200182805461041e9061353f565b801561046b5780601f106104405761010080835404028352916020019161046b565b820191906000526020600020905b81548152906001019060200180831161044e57829003601f168201915b505050505081526020016002820180546104849061353f565b80601f01602080910402602001604051908101604052809291908181526020018280546104b09061353f565b80156104fd5780601f106104d2576101008083540402835291602001916104fd565b820191906000526020600020905b8154815290600101906020018083116104e057829003601f168201915b505050505081526020016003820180546105169061353f565b80601f01602080910402602001604051908101604052809291908181526020018280546105429061353f565b801561058f5780601f106105645761010080835404028352916020019161058f565b820191906000526020600020905b81548152906001019060200180831161057257829003601f168201915b505050505081526020016004820180546105a89061353f565b80601f01602080910402602001604051908101604052809291908181526020018280546105d49061353f565b80156106215780601f106105f657610100808354040283529160200191610621565b820191906000526020600020905b81548152906001019060200180831161060457829003601f168201915b5050505050815260200160058201805461063a9061353f565b80601f01602080910402602001604051908101604052809291908181526020018280546106669061353f565b80156106b35780601f10610688576101008083540402835291602001916106b3565b820191906000526020600020905b81548152906001019060200180831161069657829003601f168201915b505050505081526020016006820180546106cc9061353f565b80601f01602080910402602001604051908101604052809291908181526020018280546106f89061353f565b80156107455780601f1061071a57610100808354040283529160200191610745565b820191906000526020600020905b81548152906001019060200180831161072857829003601f168201915b50505050508152602001600782015481526020016008820180546107689061353f565b80601f01602080910402602001604051908101604052809291908181526020018280546107949061353f565b80156107e15780601f106107b6576101008083540402835291602001916107e1565b820191906000526020600020905b8154815290600101906020018083116107c457829003601f168201915b505050918352505060098201546001600160a01b0381166020830152600160a01b900460ff1615156040820152600a8201546060820152600b90910154608090910152825183908390811061083857610838613574565b6020026020010181905250808061084e9061358a565b9150506103b6565b50919050565b60606000805b6004548110156108ad57600081815260208190526040902060090154600160a01b900460ff161561089b57816108978161358a565b9250505b806108a58161358a565b915050610862565b5060008167ffffffffffffffff8111156108c9576108c9612fcb565b60405190808252806020026020018201604052801561090257816020015b6108ef612cee565b8152602001906001900390816108e75790505b5090506000805b600454811015610dd857600081815260208190526040902060090154600160a01b900460ff1615610dc6576000818152602081815260409182902082516101a081019093528054835260018101805491928401916109669061353f565b80601f01602080910402602001604051908101604052809291908181526020018280546109929061353f565b80156109df5780601f106109b4576101008083540402835291602001916109df565b820191906000526020600020905b8154815290600101906020018083116109c257829003601f168201915b505050505081526020016002820180546109f89061353f565b80601f0160208091040260200160405190810160405280929190818152602001828054610a249061353f565b8015610a715780601f10610a4657610100808354040283529160200191610a71565b820191906000526020600020905b815481529060010190602001808311610a5457829003601f168201915b50505050508152602001600382018054610a8a9061353f565b80601f0160208091040260200160405190810160405280929190818152602001828054610ab69061353f565b8015610b035780601f10610ad857610100808354040283529160200191610b03565b820191906000526020600020905b815481529060010190602001808311610ae657829003601f168201915b50505050508152602001600482018054610b1c9061353f565b80601f0160208091040260200160405190810160405280929190818152602001828054610b489061353f565b8015610b955780601f10610b6a57610100808354040283529160200191610b95565b820191906000526020600020905b815481529060010190602001808311610b7857829003601f168201915b50505050508152602001600582018054610bae9061353f565b80601f0160208091040260200160405190810160405280929190818152602001828054610bda9061353f565b8015610c275780601f10610bfc57610100808354040283529160200191610c27565b820191906000526020600020905b815481529060010190602001808311610c0a57829003601f168201915b50505050508152602001600682018054610c409061353f565b80601f0160208091040260200160405190810160405280929190818152602001828054610c6c9061353f565b8015610cb95780601f10610c8e57610100808354040283529160200191610cb9565b820191906000526020600020905b815481529060010190602001808311610c9c57829003601f168201915b5050505050815260200160078201548152602001600882018054610cdc9061353f565b80601f0160208091040260200160405190810160405280929190818152602001828054610d089061353f565b8015610d555780601f10610d2a57610100808354040283529160200191610d55565b820191906000526020600020905b815481529060010190602001808311610d3857829003601f168201915b505050918352505060098201546001600160a01b0381166020830152600160a01b900460ff1615156040820152600a8201546060820152600b909101546080909101528351849084908110610dac57610dac613574565b60200260200101819052508180610dc29061358a565b9250505b80610dd08161358a565b915050610909565b50909392505050565b3360009081526001602052604090206004015460ff1615610e495760405162461bcd60e51b815260206004820152601960248201527f4661726d657220616c726561647920726567697374657265640000000000000060448201526064015b60405180910390fd5b6040805160a08101825233808252602080830186815283850186905260006060850181905260016080860181905293815283835294909420835181546001600160a01b0319166001600160a01b0390911617815593518051939493610eb5938501929190910190612d61565b5060408201518051610ed1916002840191602090910190612d61565b50606082015160038201556080909101516004909101805460ff19169115159190911790556040517f851322da2e414e9965ce5ecef6890861b23f27fe84bd9646b7de8aea70efcb5690610f2a903390859085906135b3565b60405180910390a15050565b6001602081905260009182526040909120805491810180546001600160a01b0390931692610f639061353f565b80601f0160208091040260200160405190810160405280929190818152602001828054610f8f9061353f565b8015610fdc5780601f10610fb157610100808354040283529160200191610fdc565b820191906000526020600020905b815481529060010190602001808311610fbf57829003601f168201915b505050505090806002018054610ff19061353f565b80601f016020809104026020016040519081016040528092919081815260200182805461101d9061353f565b801561106a5780601f1061103f5761010080835404028352916020019161106a565b820191906000526020600020905b81548152906001019060200180831161104d57829003601f168201915b50505050600383015460049093015491929160ff16905085565b600060038260405161109691906135f3565b9081526040519081900360200190205492915050565b60008160045481106110d05760405162461bcd60e51b8152600401610e409061360f565b5050600090815260208190526040902060090154600160a01b900460ff1690565b61112e6040518060a0016040528060006001600160a01b031681526020016060815260200160608152602001600081526020016000151581525090565b6001600160a01b03808316600090815260016020818152604092839020835160a08101909452805490941683529083018054929392918401916111709061353f565b80601f016020809104026020016040519081016040528092919081815260200182805461119c9061353f565b80156111e95780601f106111be576101008083540402835291602001916111e9565b820191906000526020600020905b8154815290600101906020018083116111cc57829003601f168201915b505050505081526020016002820180546112029061353f565b80601f016020809104026020016040519081016040528092919081815260200182805461122e9061353f565b801561127b5780601f106112505761010080835404028352916020019161127b565b820191906000526020600020905b81548152906001019060200180831161125e57829003601f168201915b50505091835250506003820154602082015260049091015460ff16151560409091015292915050565b6005546001600160a01b031633146113085760405162461bcd60e51b815260206004820152602160248201527f4f6e6c79206f776e65722063616e2063616c6c20746869732066756e6374696f6044820152603760f91b6064820152608401610e40565b81600454811061132a5760405162461bcd60e51b8152600401610e409061360f565b6000838152602081905260409081902060098101805460ff60a01b1916600160a01b8615150217905542600b8201819055600782015492517f83e6d9da6e6c9812bfe6b365067bb8ce5976dd791632ecba285d7dcefdb635e5936113999388939192600690910191889161363f565b60405180910390a1505050565b600060208190529081526040902080546001820180549192916113c89061353f565b80601f01602080910402602001604051908101604052809291908181526020018280546113f49061353f565b80156114415780601f1061141657610100808354040283529160200191611441565b820191906000526020600020905b81548152906001019060200180831161142457829003601f168201915b5050505050908060020180546114569061353f565b80601f01602080910402602001604051908101604052809291908181526020018280546114829061353f565b80156114cf5780601f106114a4576101008083540402835291602001916114cf565b820191906000526020600020905b8154815290600101906020018083116114b257829003601f168201915b5050505050908060030180546114e49061353f565b80601f01602080910402602001604051908101604052809291908181526020018280546115109061353f565b801561155d5780601f106115325761010080835404028352916020019161155d565b820191906000526020600020905b81548152906001019060200180831161154057829003601f168201915b5050505050908060040180546115729061353f565b80601f016020809104026020016040519081016040528092919081815260200182805461159e9061353f565b80156115eb5780601f106115c0576101008083540402835291602001916115eb565b820191906000526020600020905b8154815290600101906020018083116115ce57829003601f168201915b5050505050908060050180546116009061353f565b80601f016020809104026020016040519081016040528092919081815260200182805461162c9061353f565b80156116795780601f1061164e57610100808354040283529160200191611679565b820191906000526020600020905b81548152906001019060200180831161165c57829003601f168201915b50505050509080600601805461168e9061353f565b80601f01602080910402602001604051908101604052809291908181526020018280546116ba9061353f565b80156117075780601f106116dc57610100808354040283529160200191611707565b820191906000526020600020905b8154815290600101906020018083116116ea57829003601f168201915b5050505050908060070154908060080180546117229061353f565b80601f016020809104026020016040519081016040528092919081815260200182805461174e9061353f565b801561179b5780601f106117705761010080835404028352916020019161179b565b820191906000526020600020905b81548152906001019060200180831161177e57829003601f168201915b505050506009830154600a840154600b9094015492936001600160a01b03821693600160a01b90920460ff169250908d565b606060006003836040516117e191906135f3565b908152602001604051809103902090506000818054905067ffffffffffffffff81111561181057611810612fcb565b60405190808252806020026020018201604052801561184957816020015b611836612cee565b81526020019060019003908161182e5790505b50905060005b8254811015611d105760008084838154811061186d5761186d613574565b90600052602060002001548152602001908152602001600020604051806101a0016040529081600082015481526020016001820180546118ac9061353f565b80601f01602080910402602001604051908101604052809291908181526020018280546118d89061353f565b80156119255780601f106118fa57610100808354040283529160200191611925565b820191906000526020600020905b81548152906001019060200180831161190857829003601f168201915b5050505050815260200160028201805461193e9061353f565b80601f016020809104026020016040519081016040528092919081815260200182805461196a9061353f565b80156119b75780601f1061198c576101008083540402835291602001916119b7565b820191906000526020600020905b81548152906001019060200180831161199a57829003601f168201915b505050505081526020016003820180546119d09061353f565b80601f01602080910402602001604051908101604052809291908181526020018280546119fc9061353f565b8015611a495780601f10611a1e57610100808354040283529160200191611a49565b820191906000526020600020905b815481529060010190602001808311611a2c57829003601f168201915b50505050508152602001600482018054611a629061353f565b80601f0160208091040260200160405190810160405280929190818152602001828054611a8e9061353f565b8015611adb5780601f10611ab057610100808354040283529160200191611adb565b820191906000526020600020905b815481529060010190602001808311611abe57829003601f168201915b50505050508152602001600582018054611af49061353f565b80601f0160208091040260200160405190810160405280929190818152602001828054611b209061353f565b8015611b6d5780601f10611b4257610100808354040283529160200191611b6d565b820191906000526020600020905b815481529060010190602001808311611b5057829003601f168201915b50505050508152602001600682018054611b869061353f565b80601f0160208091040260200160405190810160405280929190818152602001828054611bb29061353f565b8015611bff5780601f10611bd457610100808354040283529160200191611bff565b820191906000526020600020905b815481529060010190602001808311611be257829003601f168201915b5050505050815260200160078201548152602001600882018054611c229061353f565b80601f0160208091040260200160405190810160405280929190818152602001828054611c4e9061353f565b8015611c9b5780601f10611c7057610100808354040283529160200191611c9b565b820191906000526020600020905b815481529060010190602001808311611c7e57829003601f168201915b505050918352505060098201546001600160a01b0381166020830152600160a01b900460ff1615156040820152600a8201546060820152600b909101546080909101528251839083908110611cf257611cf2613574565b60200260200101819052508080611d089061358a565b91505061184f565b509392505050565b3360009081526001602052604090206004015460ff16611d915760405162461bcd60e51b815260206004820152602e60248201527f4f6e6c792072656769737465726564206661726d6572732063616e2063616c6c60448201526d103a3434b990333ab731ba34b7b760911b6064820152608401610e40565b6000885111611de25760405162461bcd60e51b815260206004820152601860248201527f50726f64756374206e616d6520697320726571756972656400000000000000006044820152606401610e40565b6000875111611e2a5760405162461bcd60e51b815260206004820152601460248201527310d85d1959dbdc9e481a5cc81c995c5d5a5c995960621b6044820152606401610e40565b60008211611e7a5760405162461bcd60e51b815260206004820152601c60248201527f5072696365206d7573742062652067726561746572207468616e2030000000006044820152606401610e40565b604051806101a001604052806004548152602001898152602001888152602001878152602001868152602001858152602001848152602001838152602001828152602001336001600160a01b03168152602001600115158152602001428152602001428152506000806004548152602001908152602001600020600082015181600001556020820151816001019080519060200190611f1a929190612d61565b5060408201518051611f36916002840191602090910190612d61565b5060608201518051611f52916003840191602090910190612d61565b5060808201518051611f6e916004840191602090910190612d61565b5060a08201518051611f8a916005840191602090910190612d61565b5060c08201518051611fa6916006840191602090910190612d61565b5060e082015160078201556101008201518051611fcd916008840191602090910190612d61565b506101208201516009820180546101408501511515600160a01b026001600160a81b03199091166001600160a01b0390931692909217919091179055610160820151600a82015561018090910151600b9091015533600090815260026020908152604080832060045481546001810183559185529290932090920155516003906120589089906135f3565b9081526040805160209281900383019020600454815460018082018455600093845285842090910191909155338252909252812060030180549161209b8361358a565b91905055507fff3920ad78c431cee6817a62a8410ec758ba5a6dedf4daae49140c199242d9816004548989898989898989336040516120e39a9998979695949392919061370e565b60405180910390a1600480549060006120fb8361358a565b91905055505050505050505050565b8151602081840181018051600382529282019185019190912091905280548290811061213557600080fd5b90600052602060002001600091509150505481565b83600454811061216c5760405162461bcd60e51b8152600401610e409061360f565b600085815260208190526040902060098101546001600160a01b031633146121d65760405162461bcd60e51b815260206004820152601d60248201527f4f6e6c792070726f64756374206f776e65722063616e207570646174650000006044820152606401610e40565b600085116122265760405162461bcd60e51b815260206004820152601c60248201527f5072696365206d7573742062652067726561746572207468616e2030000000006044820152606401610e40565b6007810185905583516122429060068301906020870190612d61565b5060098101805460ff60a01b1916600160a01b8515150217905542600b82018190556040517f83e6d9da6e6c9812bfe6b365067bb8ce5976dd791632ecba285d7dcefdb635e59161229a9189918991899189916137c8565b60405180910390a1505050505050565b6122b2612cee565b8160045481106122d45760405162461bcd60e51b8152600401610e409061360f565b6000838152602081815260409182902082516101a081019093528054835260018101805491928401916123069061353f565b80601f01602080910402602001604051908101604052809291908181526020018280546123329061353f565b801561237f5780601f106123545761010080835404028352916020019161237f565b820191906000526020600020905b81548152906001019060200180831161236257829003601f168201915b505050505081526020016002820180546123989061353f565b80601f01602080910402602001604051908101604052809291908181526020018280546123c49061353f565b80156124115780601f106123e657610100808354040283529160200191612411565b820191906000526020600020905b8154815290600101906020018083116123f457829003601f168201915b5050505050815260200160038201805461242a9061353f565b80601f01602080910402602001604051908101604052809291908181526020018280546124569061353f565b80156124a35780601f10612478576101008083540402835291602001916124a3565b820191906000526020600020905b81548152906001019060200180831161248657829003601f168201915b505050505081526020016004820180546124bc9061353f565b80601f01602080910402602001604051908101604052809291908181526020018280546124e89061353f565b80156125355780601f1061250a57610100808354040283529160200191612535565b820191906000526020600020905b81548152906001019060200180831161251857829003601f168201915b5050505050815260200160058201805461254e9061353f565b80601f016020809104026020016040519081016040528092919081815260200182805461257a9061353f565b80156125c75780601f1061259c576101008083540402835291602001916125c7565b820191906000526020600020905b8154815290600101906020018083116125aa57829003601f168201915b505050505081526020016006820180546125e09061353f565b80601f016020809104026020016040519081016040528092919081815260200182805461260c9061353f565b80156126595780601f1061262e57610100808354040283529160200191612659565b820191906000526020600020905b81548152906001019060200180831161263c57829003601f168201915b505050505081526020016007820154815260200160088201805461267c9061353f565b80601f01602080910402602001604051908101604052809291908181526020018280546126a89061353f565b80156126f55780601f106126ca576101008083540402835291602001916126f5565b820191906000526020600020905b8154815290600101906020018083116126d857829003601f168201915b505050918352505060098201546001600160a01b0381166020830152600160a01b900460ff1615156040820152600a8201546060820152600b909101546080909101529392505050565b600454600080805b60045481101561279257600081815260208190526040902060090154600160a01b900460ff1615612780578161277c8161358a565b9250505b8061278a8161358a565b915050612747565b5060009150909192565b6001600160a01b038116600090815260026020526040812080546060929067ffffffffffffffff8111156127d2576127d2612fcb565b60405190808252806020026020018201604052801561280b57816020015b6127f8612cee565b8152602001906001900390816127f05790505b50905060005b8254811015611d105760008084838154811061282f5761282f613574565b90600052602060002001548152602001908152602001600020604051806101a00160405290816000820154815260200160018201805461286e9061353f565b80601f016020809104026020016040519081016040528092919081815260200182805461289a9061353f565b80156128e75780601f106128bc576101008083540402835291602001916128e7565b820191906000526020600020905b8154815290600101906020018083116128ca57829003601f168201915b505050505081526020016002820180546129009061353f565b80601f016020809104026020016040519081016040528092919081815260200182805461292c9061353f565b80156129795780601f1061294e57610100808354040283529160200191612979565b820191906000526020600020905b81548152906001019060200180831161295c57829003601f168201915b505050505081526020016003820180546129929061353f565b80601f01602080910402602001604051908101604052809291908181526020018280546129be9061353f565b8015612a0b5780601f106129e057610100808354040283529160200191612a0b565b820191906000526020600020905b8154815290600101906020018083116129ee57829003601f168201915b50505050508152602001600482018054612a249061353f565b80601f0160208091040260200160405190810160405280929190818152602001828054612a509061353f565b8015612a9d5780601f10612a7257610100808354040283529160200191612a9d565b820191906000526020600020905b815481529060010190602001808311612a8057829003601f168201915b50505050508152602001600582018054612ab69061353f565b80601f0160208091040260200160405190810160405280929190818152602001828054612ae29061353f565b8015612b2f5780601f10612b0457610100808354040283529160200191612b2f565b820191906000526020600020905b815481529060010190602001808311612b1257829003601f168201915b50505050508152602001600682018054612b489061353f565b80601f0160208091040260200160405190810160405280929190818152602001828054612b749061353f565b8015612bc15780601f10612b9657610100808354040283529160200191612bc1565b820191906000526020600020905b815481529060010190602001808311612ba457829003601f168201915b5050505050815260200160078201548152602001600882018054612be49061353f565b80601f0160208091040260200160405190810160405280929190818152602001828054612c109061353f565b8015612c5d5780601f10612c3257610100808354040283529160200191612c5d565b820191906000526020600020905b815481529060010190602001808311612c4057829003601f168201915b505050918352505060098201546001600160a01b0381166020830152600160a01b900460ff1615156040820152600a8201546060820152600b909101546080909101528251839083908110612cb457612cb4613574565b60200260200101819052508080612cca9061358a565b915050612811565b6002602052816000526040600020818154811061213557600080fd5b604051806101a0016040528060008152602001606081526020016060815260200160608152602001606081526020016060815260200160608152602001600081526020016060815260200160006001600160a01b0316815260200160001515815260200160008152602001600081525090565b828054612d6d9061353f565b90600052602060002090601f016020900481019282612d8f5760008555612dd5565b82601f10612da857805160ff1916838001178555612dd5565b82800160010185558215612dd5579182015b82811115612dd5578251825591602001919060010190612dba565b50612de1929150612de5565b5090565b5b80821115612de15760008155600101612de6565b60005b83811015612e15578181015183820152602001612dfd565b83811115612e24576000848401525b50505050565b60008151808452612e42816020860160208601612dfa565b601f01601f19169290920160200192915050565b60006101a0825184526020830151816020860152612e7682860182612e2a565b91505060408301518482036040860152612e908282612e2a565b91505060608301518482036060860152612eaa8282612e2a565b91505060808301518482036080860152612ec48282612e2a565b91505060a083015184820360a0860152612ede8282612e2a565b91505060c083015184820360c0860152612ef88282612e2a565b91505060e083015160e08501526101008084015185830382870152612f1d8382612e2a565b9250505061012080840151612f3c828701826001600160a01b03169052565b50506101408381015115159085015261016080840151908501526101809283015192909301919091525090565b6000602080830181845280855180835260408601915060408160051b870101925083870160005b82811015612fbe57603f19888603018452612fac858351612e56565b94509285019290850190600101612f90565b5092979650505050505050565b634e487b7160e01b600052604160045260246000fd5b600082601f830112612ff257600080fd5b813567ffffffffffffffff8082111561300d5761300d612fcb565b604051601f8301601f19908116603f0116810190828211818310171561303557613035612fcb565b8160405283815286602085880101111561304e57600080fd5b836020870160208301376000602085830101528094505050505092915050565b6000806040838503121561308157600080fd5b823567ffffffffffffffff8082111561309957600080fd5b6130a586838701612fe1565b935060208501359150808211156130bb57600080fd5b506130c885828601612fe1565b9150509250929050565b80356001600160a01b03811681146130e957600080fd5b919050565b60006020828403121561310057600080fd5b613109826130d2565b9392505050565b6001600160a01b038616815260a06020820181905260009061313490830187612e2a565b82810360408401526131468187612e2a565b606084019590955250509015156080909101529392505050565b60006020828403121561317257600080fd5b813567ffffffffffffffff81111561318957600080fd5b61319584828501612fe1565b949350505050565b6000602082840312156131af57600080fd5b5035919050565b602080825282516001600160a01b03168282015282015160a060408301526000906131e460c0840182612e2a565b90506040840151601f198483030160608501526132018282612e2a565b915050606084015160808401526080840151151560a08401528091505092915050565b803580151581146130e957600080fd5b6000806040838503121561324757600080fd5b8235915061325760208401613224565b90509250929050565b8d81526101a06020820152600061327b6101a083018f612e2a565b828103604084015261328d818f612e2a565b905082810360608401526132a1818e612e2a565b905082810360808401526132b5818d612e2a565b905082810360a08401526132c9818c612e2a565b905082810360c08401526132dd818b612e2a565b90508860e08401528281036101008401526132f88189612e2a565b9150506133116101208301876001600160a01b03169052565b84151561014083015261016082019390935261018001529b9a5050505050505050505050565b600080600080600080600080610100898b03121561335457600080fd5b883567ffffffffffffffff8082111561336c57600080fd5b6133788c838d01612fe1565b995060208b013591508082111561338e57600080fd5b61339a8c838d01612fe1565b985060408b01359150808211156133b057600080fd5b6133bc8c838d01612fe1565b975060608b01359150808211156133d257600080fd5b6133de8c838d01612fe1565b965060808b01359150808211156133f457600080fd5b6134008c838d01612fe1565b955060a08b013591508082111561341657600080fd5b6134228c838d01612fe1565b945060c08b0135935060e08b013591508082111561343f57600080fd5b5061344c8b828c01612fe1565b9150509295985092959890939650565b6000806040838503121561346f57600080fd5b823567ffffffffffffffff81111561348657600080fd5b61349285828601612fe1565b95602094909401359450505050565b600080600080608085870312156134b757600080fd5b8435935060208501359250604085013567ffffffffffffffff8111156134dc57600080fd5b6134e887828801612fe1565b9250506134f760608601613224565b905092959194509250565b6020815260006131096020830184612e56565b6000806040838503121561352857600080fd5b613531836130d2565b946020939093013593505050565b600181811c9082168061355357607f821691505b6020821081141561085657634e487b7160e01b600052602260045260246000fd5b634e487b7160e01b600052603260045260246000fd5b60006000198214156135ac57634e487b7160e01b600052601160045260246000fd5b5060010190565b6001600160a01b03841681526060602082018190526000906135d790830185612e2a565b82810360408401526135e98185612e2a565b9695505050505050565b60008251613605818460208701612dfa565b9190910192915050565b602080825260169082015275141c9bd91d58dd08191bd95cc81b9bdd08195e1a5cdd60521b604082015260600190565b85815260006020868184015260a060408401526000865481600182811c91508083168061366d57607f831692505b85831081141561368b57634e487b7160e01b85526022600452602485fd5b60a0880183905260c088018180156136aa57600181146136bb576136e6565b60ff198616825287820196506136e6565b60008d81526020902060005b868110156136e0578154848201529085019089016136c7565b83019750505b505050508715156060870152509092506136fe915050565b8260808301529695505050505050565b60006101408c83528060208401526137288184018d612e2a565b9050828103604084015261373c818c612e2a565b90508281036060840152613750818b612e2a565b90508281036080840152613764818a612e2a565b905082810360a08401526137788189612e2a565b905082810360c084015261378c8188612e2a565b90508560e08401528281036101008401526137a78186612e2a565b91505060018060a01b0383166101208301529b9a5050505050505050505050565b85815284602082015260a0604082015260006137e760a0830186612e2a565b93151560608301525060800152939250505056fea2646970667358221220c28065c25a419e7c586504c69e16f8ba75f1e742bcb2eb32a339cb62be964d2864736f6c63430008090033",
  "linkReferences": {},
  "deployedLinkReferences": {}
}